{
  "contractName": "Lottery",
  "abi": [
    {
      "inputs": [],
      "payable": false,
      "stateMutability": "nonpayable",
      "type": "constructor"
    },
    {
      "anonymous": false,
      "inputs": [
        {
          "indexed": false,
          "internalType": "address",
          "name": "",
          "type": "address"
        },
        {
          "indexed": false,
          "internalType": "uint256",
          "name": "",
          "type": "uint256"
        },
        {
          "indexed": false,
          "internalType": "uint256",
          "name": "",
          "type": "uint256"
        }
      ],
      "name": "check",
      "type": "event"
    },
    {
      "constant": true,
      "inputs": [],
      "name": "owner",
      "outputs": [
        {
          "internalType": "address",
          "name": "",
          "type": "address"
        }
      ],
      "payable": false,
      "stateMutability": "view",
      "type": "function"
    },
    {
      "constant": true,
      "inputs": [
        {
          "internalType": "uint256",
          "name": "",
          "type": "uint256"
        }
      ],
      "name": "players",
      "outputs": [
        {
          "internalType": "address payable",
          "name": "",
          "type": "address"
        }
      ],
      "payable": false,
      "stateMutability": "view",
      "type": "function"
    },
    {
      "constant": true,
      "inputs": [],
      "name": "winner",
      "outputs": [
        {
          "internalType": "address payable",
          "name": "",
          "type": "address"
        }
      ],
      "payable": false,
      "stateMutability": "view",
      "type": "function"
    },
    {
      "constant": true,
      "inputs": [],
      "name": "getGreeting",
      "outputs": [
        {
          "internalType": "string",
          "name": "",
          "type": "string"
        }
      ],
      "payable": false,
      "stateMutability": "view",
      "type": "function"
    },
    {
      "constant": false,
      "inputs": [
        {
          "internalType": "string",
          "name": "_greeting",
          "type": "string"
        }
      ],
      "name": "setGreeting",
      "outputs": [],
      "payable": false,
      "stateMutability": "nonpayable",
      "type": "function"
    },
    {
      "constant": true,
      "inputs": [],
      "name": "pankaj",
      "outputs": [
        {
          "internalType": "string",
          "name": "",
          "type": "string"
        }
      ],
      "payable": false,
      "stateMutability": "pure",
      "type": "function"
    },
    {
      "constant": false,
      "inputs": [],
      "name": "deposit",
      "outputs": [],
      "payable": true,
      "stateMutability": "payable",
      "type": "function"
    },
    {
      "constant": false,
      "inputs": [],
      "name": "pickWinner",
      "outputs": [],
      "payable": false,
      "stateMutability": "nonpayable",
      "type": "function"
    }
  ],
  "bytecode": "0x608060405234801561001057600080fd5b50336000806101000a81548173ffffffffffffffffffffffffffffffffffffffff021916908373ffffffffffffffffffffffffffffffffffffffff1602179055506040518060400160405280600581526020017f68656c6c6f0000000000000000000000000000000000000000000000000000008152506003908051906020019061009c9291906100a2565b50610147565b828054600181600116156101000203166002900490600052602060002090601f016020900481019282601f106100e357805160ff1916838001178555610111565b82800160010185558215610111579182015b828111156101105782518255916020019190600101906100f5565b5b50905061011e9190610122565b5090565b61014491905b80821115610140576000816000905550600101610128565b5090565b90565b6109b0806101566000396000f3fe60806040526004361061007b5760003560e01c8063d0e30db01161004e578063d0e30db014610246578063dfbf53ae14610250578063f71d96cb146102a7578063fe50cc72146103225761007b565b80635d495aea146100805780636640125e146100975780638da5cb5b14610127578063a41368621461017e575b600080fd5b34801561008c57600080fd5b506100956103b2565b005b3480156100a357600080fd5b506100ac610553565b6040518080602001828103825283818151815260200191508051906020019080838360005b838110156100ec5780820151818401526020810190506100d1565b50505050905090810190601f1680156101195780820380516001836020036101000a031916815260200191505b509250505060405180910390f35b34801561013357600080fd5b5061013c610590565b604051808273ffffffffffffffffffffffffffffffffffffffff1673ffffffffffffffffffffffffffffffffffffffff16815260200191505060405180910390f35b34801561018a57600080fd5b50610244600480360360208110156101a157600080fd5b81019080803590602001906401000000008111156101be57600080fd5b8201836020820111156101d057600080fd5b803590602001918460018302840111640100000000831117156101f257600080fd5b91908080601f016020809104026020016040519081016040528093929190818152602001838380828437600081840152601f19601f8201169050808301925050505050505091929192905050506105b5565b005b61024e6105cf565b005b34801561025c57600080fd5b506102656106bf565b604051808273ffffffffffffffffffffffffffffffffffffffff1673ffffffffffffffffffffffffffffffffffffffff16815260200191505060405180910390f35b3480156102b357600080fd5b506102e0600480360360208110156102ca57600080fd5b81019080803590602001909291905050506106e5565b604051808273ffffffffffffffffffffffffffffffffffffffff1673ffffffffffffffffffffffffffffffffffffffff16815260200191505060405180910390f35b34801561032e57600080fd5b50610337610721565b6040518080602001828103825283818151815260200191508051906020019080838360005b8381101561037757808201518184015260208101905061035c565b50505050905090810190601f1680156103a45780820380516001836020036101000a031916815260200191505b509250505060405180910390f35b6000809054906101000a900473ffffffffffffffffffffffffffffffffffffffff1673ffffffffffffffffffffffffffffffffffffffff163373ffffffffffffffffffffffffffffffffffffffff1614156105515760006104116107c3565b90506000600180549050828161042357fe5b0690506001818154811061043357fe5b9060005260206000200160009054906101000a900473ffffffffffffffffffffffffffffffffffffffff16600260006101000a81548173ffffffffffffffffffffffffffffffffffffffff021916908373ffffffffffffffffffffffffffffffffffffffff160217905550600260009054906101000a900473ffffffffffffffffffffffffffffffffffffffff1673ffffffffffffffffffffffffffffffffffffffff166108fc479081150290604051600060405180830381858888f19350505050158015610506573d6000803e3d6000fd5b5060006040519080825280602002602001820160405280156105375781602001602082028038833980820191505090505b506001908051906020019061054d929190610809565b5050505b565b60606040518060400160405280600681526020017f70616e6b616a0000000000000000000000000000000000000000000000000000815250905090565b6000809054906101000a900473ffffffffffffffffffffffffffffffffffffffff1681565b80600390805190602001906105cb929190610893565b5050565b678ac7230489e800003410156105e457600080fd5b7f98827c9ab2229cddb76c4d80105aa632c7db72aa906aecfb4dd36376e6257317333447604051808473ffffffffffffffffffffffffffffffffffffffff1673ffffffffffffffffffffffffffffffffffffffff168152602001838152602001828152602001935050505060405180910390a160013390806001815401808255809150509060018203906000526020600020016000909192909190916101000a81548173ffffffffffffffffffffffffffffffffffffffff021916908373ffffffffffffffffffffffffffffffffffffffff16021790555050565b600260009054906101000a900473ffffffffffffffffffffffffffffffffffffffff1681565b600181815481106106f257fe5b906000526020600020016000915054906101000a900473ffffffffffffffffffffffffffffffffffffffff1681565b606060038054600181600116156101000203166002900480601f0160208091040260200160405190810160405280929190818152602001828054600181600116156101000203166002900480156107b95780601f1061078e576101008083540402835291602001916107b9565b820191906000526020600020905b81548152906001019060200180831161079c57829003601f168201915b5050505050905090565b600042446001805490506040516020018084815260200183815260200182815260200193505050506040516020818303038152906040528051906020012060001c905090565b828054828255906000526020600020908101928215610882579160200282015b828111156108815782518260006101000a81548173ffffffffffffffffffffffffffffffffffffffff021916908373ffffffffffffffffffffffffffffffffffffffff16021790555091602001919060010190610829565b5b50905061088f9190610913565b5090565b828054600181600116156101000203166002900490600052602060002090601f016020900481019282601f106108d457805160ff1916838001178555610902565b82800160010185558215610902579182015b828111156109015782518255916020019190600101906108e6565b5b50905061090f9190610956565b5090565b61095391905b8082111561094f57600081816101000a81549073ffffffffffffffffffffffffffffffffffffffff021916905550600101610919565b5090565b90565b61097891905b8082111561097457600081600090555060010161095c565b5090565b9056fea265627a7a72315820984f9b31c57c9f5653b02009ba7ff2607561a08012d8f820b8ffde876e39f25c64736f6c63430005100032",
  "source": "pragma solidity ^0.5.3;\r\n\r\ncontract Lottery {\r\n    address public owner;\r\n\r\n    address payable[] public players;\r\n\r\n    address payable public winner;\r\n\r\n    string greeting;\r\n    event check(address, uint256, uint256);\r\n\r\n    constructor() public {\r\n        owner = msg.sender;\r\n        greeting = \"hello\";\r\n    }\r\n\r\n    function getGreeting() public view returns (string memory) {\r\n        return greeting;\r\n    }\r\n\r\n    function setGreeting(string memory _greeting) public {\r\n        greeting = _greeting;\r\n    }\r\n\r\n    modifier OwnerOnly {\r\n        if (msg.sender == owner) {\r\n            _;\r\n        }\r\n    }\r\n\r\n    function pankaj() public pure returns (string memory) {\r\n        return \"pankaj\";\r\n    }\r\n\r\n    function deposit() public payable {\r\n        require(msg.value >= 10 ether);\r\n        emit check(msg.sender, msg.value, address(this).balance);\r\n        players.push(msg.sender);\r\n    }\r\n\r\n    function GenerateRandomNum() private view returns (uint256) {\r\n        return\r\n            uint256(\r\n                keccak256(\r\n                    abi.encodePacked(now, block.difficulty, players.length)\r\n                )\r\n            );\r\n    }\r\n\r\n    function pickWinner() public OwnerOnly {\r\n        uint256 randomNumber = GenerateRandomNum();\r\n        uint256 index = randomNumber % players.length;\r\n        // address payable winner;\r\n\r\n        winner = players[index];\r\n\r\n        winner.transfer(address(this).balance);\r\n\r\n        players = new address payable[](0);\r\n    }\r\n}\r\n",
  "sourcePath": "F:/pankaj/react_ethereum/contracts/Lottery.sol",
  "compiler": {
    "name": "solc",
    "version": "0.5.16+commit.9c3226ce.Emscripten.clang"
  },
  "schemaVersion": "3.2.4",
  "updatedAt": "2020-08-30T10:16:54.954Z",
  "networkType": "ethereum",
  "devdoc": {
    "methods": {}
  },
  "userdoc": {
    "methods": {}
  }
}